{
  "contractName": "ProofOfExistence",
  "abi": [
    {
      "constant": true,
      "inputs": [],
      "name": "currentFileIndex",
      "outputs": [
        {
          "name": "",
          "type": "uint256"
        }
      ],
      "payable": false,
      "stateMutability": "view",
      "type": "function"
    },
    {
      "constant": true,
      "inputs": [
        {
          "name": "",
          "type": "address"
        },
        {
          "name": "",
          "type": "uint256"
        }
      ],
      "name": "userMap",
      "outputs": [
        {
          "name": "",
          "type": "uint256"
        }
      ],
      "payable": false,
      "stateMutability": "view",
      "type": "function"
    },
    {
      "constant": true,
      "inputs": [
        {
          "name": "",
          "type": "uint256"
        }
      ],
      "name": "fileMap",
      "outputs": [
        {
          "name": "creator",
          "type": "address"
        },
        {
          "name": "fileHash",
          "type": "string"
        },
        {
          "name": "timestamp",
          "type": "uint256"
        }
      ],
      "payable": false,
      "stateMutability": "view",
      "type": "function"
    },
    {
      "constant": true,
      "inputs": [],
      "name": "owner",
      "outputs": [
        {
          "name": "",
          "type": "address"
        }
      ],
      "payable": false,
      "stateMutability": "view",
      "type": "function"
    },
    {
      "inputs": [],
      "payable": false,
      "stateMutability": "nonpayable",
      "type": "constructor"
    },
    {
      "anonymous": false,
      "inputs": [
        {
          "indexed": false,
          "name": "fileHash",
          "type": "string"
        },
        {
          "indexed": true,
          "name": "fileIndex",
          "type": "uint256"
        }
      ],
      "name": "FileRegistered",
      "type": "event"
    },
    {
      "constant": false,
      "inputs": [],
      "name": "stopContract",
      "outputs": [],
      "payable": false,
      "stateMutability": "nonpayable",
      "type": "function"
    },
    {
      "constant": false,
      "inputs": [],
      "name": "resumeContract",
      "outputs": [],
      "payable": false,
      "stateMutability": "nonpayable",
      "type": "function"
    },
    {
      "constant": false,
      "inputs": [
        {
          "name": "_fileHash",
          "type": "string"
        }
      ],
      "name": "registerFile",
      "outputs": [
        {
          "name": "success",
          "type": "bool"
        }
      ],
      "payable": true,
      "stateMutability": "payable",
      "type": "function"
    },
    {
      "constant": true,
      "inputs": [
        {
          "name": "_index",
          "type": "uint256"
        }
      ],
      "name": "getFile",
      "outputs": [
        {
          "name": "creator",
          "type": "address"
        },
        {
          "name": "fileHash",
          "type": "string"
        },
        {
          "name": "timestamp",
          "type": "uint256"
        }
      ],
      "payable": false,
      "stateMutability": "view",
      "type": "function"
    },
    {
      "constant": true,
      "inputs": [
        {
          "name": "_fileHash",
          "type": "string"
        }
      ],
      "name": "checkFileExists",
      "outputs": [
        {
          "name": "fileExists",
          "type": "bool"
        }
      ],
      "payable": false,
      "stateMutability": "view",
      "type": "function"
    },
    {
      "constant": true,
      "inputs": [
        {
          "name": "_user",
          "type": "address"
        }
      ],
      "name": "getUserMap",
      "outputs": [
        {
          "name": "index",
          "type": "uint256[]"
        }
      ],
      "payable": false,
      "stateMutability": "view",
      "type": "function"
    },
    {
      "constant": true,
      "inputs": [
        {
          "name": "_fileHash",
          "type": "string"
        }
      ],
      "name": "getFileIndexByFileHash",
      "outputs": [
        {
          "name": "index",
          "type": "uint256"
        }
      ],
      "payable": false,
      "stateMutability": "view",
      "type": "function"
    }
  ],
  "bytecode": "0x608060405260008060006101000a81548160ff02191690831515021790555034801561002a57600080fd5b506001808190555033600560006101000a81548173ffffffffffffffffffffffffffffffffffffffff021916908373ffffffffffffffffffffffffffffffffffffffff160217905550610f3f806100826000396000f3006080604052600436106100af576000357c0100000000000000000000000000000000000000000000000000000000900463ffffffff1680630930ffc8146100b457806312253a6c146100df57806327203b58146100f65780632bfda313146101775780632ce18a74146102575780634644f039146102d45780634f9822051461033557806366d561d2146104155780638da5cb5b14610489578063a0f5a7e7146104e0578063c4bc5da514610578575b600080fd5b3480156100c057600080fd5b506100c961058f565b6040518082815260200191505060405180910390f35b3480156100eb57600080fd5b506100f4610595565b005b34801561010257600080fd5b5061015d600480360381019080803590602001908201803590602001908080601f016020809104026020016040519081016040528093929190818152602001838380828437820191505050505050919291929050505061060d565b604051808215151515815260200191505060405180910390f35b34801561018357600080fd5b506101a260048036038101908080359060200190929190505050610684565b604051808473ffffffffffffffffffffffffffffffffffffffff1673ffffffffffffffffffffffffffffffffffffffff16815260200180602001838152602001828103825284818151815260200191508051906020019080838360005b8381101561021a5780820151818401526020810190506101ff565b50505050905090810190601f1680156102475780820380516001836020036101000a031916815260200191505b5094505050505060405180910390f35b34801561026357600080fd5b506102be600480360381019080803590602001908201803590602001908080601f01602080910402602001604051908101604052809392919081815260200183838082843782019150505050505091929192905050506107e4565b6040518082815260200191505060405180910390f35b3480156102e057600080fd5b5061031f600480360381019080803573ffffffffffffffffffffffffffffffffffffffff16906020019092919080359060200190929190505050610859565b6040518082815260200191505060405180910390f35b34801561034157600080fd5b5061036060048036038101908080359060200190929190505050610889565b604051808473ffffffffffffffffffffffffffffffffffffffff1673ffffffffffffffffffffffffffffffffffffffff16815260200180602001838152602001828103825284818151815260200191508051906020019080838360005b838110156103d85780820151818401526020810190506103bd565b50505050905090810190601f1680156104055780820380516001836020036101000a031916815260200191505b5094505050505060405180910390f35b61046f600480360381019080803590602001908201803590602001908080601f016020809104026020016040519081016040528093929190818152602001838380828437820191505050505050919291929050505061096b565b604051808215151515815260200191505060405180910390f35b34801561049557600080fd5b5061049e610cca565b604051808273ffffffffffffffffffffffffffffffffffffffff1673ffffffffffffffffffffffffffffffffffffffff16815260200191505060405180910390f35b3480156104ec57600080fd5b50610521600480360381019080803573ffffffffffffffffffffffffffffffffffffffff169060200190929190505050610cf0565b6040518080602001828103825283818151815260200191508051906020019060200280838360005b83811015610564578082015181840152602081019050610549565b505050509050019250505060405180910390f35b34801561058457600080fd5b5061058d610d87565b005b60015481565b600560009054906101000a900473ffffffffffffffffffffffffffffffffffffffff1673ffffffffffffffffffffffffffffffffffffffff163373ffffffffffffffffffffffffffffffffffffffff161415156105f157600080fd5b60016000806101000a81548160ff021916908315150217905550565b6000806004836040518082805190602001908083835b6020831015156106485780518252602082019150602081019050602083039250610623565b6001836020036101000a038019825116818451168082178552505050505050905001915050908152602001604051809103902054119050919050565b600060606000610692610e36565b6000851115156106a157600080fd5b60026000868152602001908152602001600020606060405190810160405290816000820160009054906101000a900473ffffffffffffffffffffffffffffffffffffffff1673ffffffffffffffffffffffffffffffffffffffff1673ffffffffffffffffffffffffffffffffffffffff168152602001600182018054600181600116156101000203166002900480601f0160208091040260200160405190810160405280929190818152602001828054600181600116156101000203166002900480156107af5780601f10610784576101008083540402835291602001916107af565b820191906000526020600020905b81548152906001019060200180831161079257829003601f168201915b505050505081526020016002820154815250509050806000015181602001518260400151819150935093509350509193909250565b60006004826040518082805190602001908083835b60208310151561081e57805182526020820191506020810190506020830392506107f9565b6001836020036101000a0380198251168184511680821785525050505050509050019150509081526020016040518091039020549050919050565b60036020528160005260406000208181548110151561087457fe5b90600052602060002001600091509150505481565b60026020528060005260406000206000915090508060000160009054906101000a900473ffffffffffffffffffffffffffffffffffffffff1690806001018054600181600116156101000203166002900480601f01602080910402602001604051908101604052809291908181526020018280546001816001161561010002031660029004801561095b5780601f106109305761010080835404028352916020019161095b565b820191906000526020600020905b81548152906001019060200180831161093e57829003601f168201915b5050505050908060020154905083565b6000600560009054906101000a900473ffffffffffffffffffffffffffffffffffffffff1673ffffffffffffffffffffffffffffffffffffffff163373ffffffffffffffffffffffffffffffffffffffff161415156109c957600080fd5b6000809054906101000a900460ff161515156109e457600080fd5b8160006004826040518082805190602001908083835b602083101515610a1f57805182526020820191506020810190506020830392506109fa565b6001836020036101000a038019825116818451168082178552505050505050905001915050908152602001604051809103902054141515610a5f57600080fd5b6060604051908101604052803373ffffffffffffffffffffffffffffffffffffffff1681526020018481526020014281525060026000600154815260200190815260200160002060008201518160000160006101000a81548173ffffffffffffffffffffffffffffffffffffffff021916908373ffffffffffffffffffffffffffffffffffffffff1602179055506020820151816001019080519060200190610b09929190610e6e565b5060408201518160020155905050600360003373ffffffffffffffffffffffffffffffffffffffff1673ffffffffffffffffffffffffffffffffffffffff16815260200190815260200160002060015490806001815401808255809150509060018203906000526020600020016000909192909190915055506001546004846040518082805190602001908083835b602083101515610bbd5780518252602082019150602081019050602083039250610b98565b6001836020036101000a038019825116818451168082178552505050505050905001915050908152602001604051809103902081905550610c0960018054610dff90919063ffffffff16565b600181905550610c2460018054610e1d90919063ffffffff16565b7f0a1c605f47b034daf4ae1c6505fecb349cff4400c422275b6dd2dfb7b74acd84846040518080602001828103825283818151815260200191508051906020019080838360005b83811015610c86578082015181840152602081019050610c6b565b50505050905090810190601f168015610cb35780820380516001836020036101000a031916815260200191505b509250505060405180910390a26001915050919050565b600560009054906101000a900473ffffffffffffffffffffffffffffffffffffffff1681565b6060600360008373ffffffffffffffffffffffffffffffffffffffff1673ffffffffffffffffffffffffffffffffffffffff168152602001908152602001600020805480602002602001604051908101604052809291908181526020018280548015610d7b57602002820191906000526020600020905b815481526020019060010190808311610d67575b50505050509050919050565b600560009054906101000a900473ffffffffffffffffffffffffffffffffffffffff1673ffffffffffffffffffffffffffffffffffffffff163373ffffffffffffffffffffffffffffffffffffffff16141515610de357600080fd5b60008060006101000a81548160ff021916908315150217905550565b6000808284019050838110151515610e1357fe5b8091505092915050565b6000828211151515610e2b57fe5b818303905092915050565b606060405190810160405280600073ffffffffffffffffffffffffffffffffffffffff16815260200160608152602001600081525090565b828054600181600116156101000203166002900490600052602060002090601f016020900481019282601f10610eaf57805160ff1916838001178555610edd565b82800160010185558215610edd579182015b82811115610edc578251825591602001919060010190610ec1565b5b509050610eea9190610eee565b5090565b610f1091905b80821115610f0c576000816000905550600101610ef4565b5090565b905600a165627a7a72305820566cc4a87c1b9afcfe90bb2031c1793d5e7100e81d503435c4befeac233904890029",
  "source": "pragma solidity ^0.4.23;\n\nimport \"../installed_contracts/zeppelin/contracts/math/SafeMath.sol\";\n\n\ncontract ProofOfExistence {\n\n  //Emergency Stop pattern\n  bool isStopped = false;\n\n  using SafeMath for uint;\n\n  // Structs\n  struct File {\n    address   creator;\n    string    fileHash;\n    uint      timestamp;\n  }\n\n   // Other Constants\n  uint public currentFileIndex;\n\n  // mapping of file index to file\n  mapping (uint => File) public fileMap;\n\n  // mapping of user addresses to an array of files\n  mapping (address => uint[]) public userMap;\n\n  // mapping of file hash to its file index\n  mapping (string => uint) fileHashMap;\n\n  // Events\n  event FileRegistered(string fileHash, uint indexed fileIndex);\n\n  address public owner;\n\n  modifier onlyOwner() {\n        require(msg.sender == owner);\n        _;\n  }\n\n  // The same file cannot be registered twice\n  modifier uniqueFile(string _fileHash) {\n        require(fileHashMap[_fileHash] == 0);\n        _;\n  }\n\n  modifier stoppedInEmergency {\n      require(!isStopped);\n      _;\n  }\n\n  modifier onlyWhenStopped {\n      require(isStopped);\n      _;\n  }\n\n  constructor() public {\n    currentFileIndex = 1;\n    owner = msg.sender;\n  }\n\n\n  function stopContract() public onlyOwner {\n        isStopped = true;\n  }\n\n  function resumeContract() public onlyOwner {\n        isStopped = false;\n  }\n\n\n  /** @dev Registers a file hash to contract.\n    * @param _fileHash the file hash to register.\n    * @return boolean if successful transaction.\n    */\n  function registerFile(string _fileHash) public payable onlyOwner stoppedInEmergency uniqueFile(_fileHash)  returns (bool success) {\n    fileMap[currentFileIndex] = File(msg.sender, _fileHash, now);\n    userMap[msg.sender].push(currentFileIndex);\n    fileHashMap[_fileHash] = currentFileIndex;\n    currentFileIndex = currentFileIndex.add(1);\n\n    emit FileRegistered(_fileHash, currentFileIndex.sub(1));\n    return true;\n  }\n\n  /** @dev Returns all file info given file index in fileMap.\n    * @param _index - index of registered file in fileMap.\n    * @return creator The address of file creator.\n    * @return fileHash The file hash.\n    * @return timestamp The timestamp of file registry saved in blockchain.\n    */\n  function getFile(uint _index) public view returns (\n    address   creator,\n    string    fileHash,\n    uint      timestamp\n  ) {\n    require(_index > 0);\n    File memory f = fileMap[_index];\n    return (f.creator, f.fileHash, f.timestamp);\n  }\n\n  /** @dev check if a fileHash exists .\n    * @param _fileHash the file hash to register.\n    * @return boolean if file exists.\n    */\n  function checkFileExists(string _fileHash) public view returns (bool fileExists) {\n    fileExists = fileHashMap[_fileHash] > 0;\n  }\n\n  /** @dev Returns all Indexes given user.\n    * @param _user - indexes of registered file in userMap.\n    * @return uint[] Indexes.\n    */\n  function getUserMap(address _user) public view returns ( uint[] index) {\n     return userMap[_user];\n  }\n\n  /** @dev Shortcut function to read a file's index by its hash.\n    * @param _fileHash the file hash to register.\n    * @return uint index.\n    */\n  function getFileIndexByFileHash(string _fileHash) public view returns (uint index) {\n    return fileHashMap[_fileHash];\n  }\n\n}\n",
  "sourcePath": "/home/mdgadmin/Consensys/proof-of-ex/contracts/ProofOfExistence.sol",
  "compiler": {
    "name": "solc",
    "version": "0.4.24+commit.e67f0147.Emscripten.clang"
  },
  "schemaVersion": "2.0.1",
  "updatedAt": "2019-01-27T21:55:07.610Z"
}