{
  "contractName": "ProofOfExistence",
  "abi": [
    {
      "constant": true,
      "inputs": [],
      "name": "currentFileIndex",
      "outputs": [
        {
          "name": "",
          "type": "uint256"
        }
      ],
      "payable": false,
      "stateMutability": "view",
      "type": "function",
      "signature": "0x0930ffc8"
    },
    {
      "constant": true,
      "inputs": [
        {
          "name": "",
          "type": "address"
        },
        {
          "name": "",
          "type": "uint256"
        }
      ],
      "name": "userMap",
      "outputs": [
        {
          "name": "",
          "type": "uint256"
        }
      ],
      "payable": false,
      "stateMutability": "view",
      "type": "function",
      "signature": "0x4644f039"
    },
    {
      "constant": true,
      "inputs": [
        {
          "name": "",
          "type": "uint256"
        }
      ],
      "name": "fileMap",
      "outputs": [
        {
          "name": "creator",
          "type": "address"
        },
        {
          "name": "fileHash",
          "type": "string"
        },
        {
          "name": "timestamp",
          "type": "uint256"
        }
      ],
      "payable": false,
      "stateMutability": "view",
      "type": "function",
      "signature": "0x4f982205"
    },
    {
      "constant": true,
      "inputs": [],
      "name": "owner",
      "outputs": [
        {
          "name": "",
          "type": "address"
        }
      ],
      "payable": false,
      "stateMutability": "view",
      "type": "function",
      "signature": "0x8da5cb5b"
    },
    {
      "inputs": [],
      "payable": false,
      "stateMutability": "nonpayable",
      "type": "constructor",
      "signature": "constructor"
    },
    {
      "anonymous": false,
      "inputs": [
        {
          "indexed": false,
          "name": "fileHash",
          "type": "string"
        },
        {
          "indexed": true,
          "name": "fileIndex",
          "type": "uint256"
        }
      ],
      "name": "FileRegistered",
      "type": "event",
      "signature": "0x0a1c605f47b034daf4ae1c6505fecb349cff4400c422275b6dd2dfb7b74acd84"
    },
    {
      "constant": false,
      "inputs": [],
      "name": "stopContract",
      "outputs": [],
      "payable": false,
      "stateMutability": "nonpayable",
      "type": "function",
      "signature": "0x12253a6c"
    },
    {
      "constant": false,
      "inputs": [],
      "name": "resumeContract",
      "outputs": [],
      "payable": false,
      "stateMutability": "nonpayable",
      "type": "function",
      "signature": "0xc4bc5da5"
    },
    {
      "constant": false,
      "inputs": [
        {
          "name": "_fileHash",
          "type": "string"
        }
      ],
      "name": "registerFile",
      "outputs": [
        {
          "name": "success",
          "type": "bool"
        }
      ],
      "payable": true,
      "stateMutability": "payable",
      "type": "function",
      "signature": "0x66d561d2"
    },
    {
      "constant": true,
      "inputs": [
        {
          "name": "_index",
          "type": "uint256"
        }
      ],
      "name": "getFile",
      "outputs": [
        {
          "name": "creator",
          "type": "address"
        },
        {
          "name": "fileHash",
          "type": "string"
        },
        {
          "name": "timestamp",
          "type": "uint256"
        }
      ],
      "payable": false,
      "stateMutability": "view",
      "type": "function",
      "signature": "0x2bfda313"
    },
    {
      "constant": true,
      "inputs": [
        {
          "name": "_fileHash",
          "type": "string"
        }
      ],
      "name": "checkFileExists",
      "outputs": [
        {
          "name": "fileExists",
          "type": "bool"
        }
      ],
      "payable": false,
      "stateMutability": "view",
      "type": "function",
      "signature": "0x27203b58"
    },
    {
      "constant": true,
      "inputs": [
        {
          "name": "_user",
          "type": "address"
        }
      ],
      "name": "getUserMap",
      "outputs": [
        {
          "name": "index",
          "type": "uint256[]"
        }
      ],
      "payable": false,
      "stateMutability": "view",
      "type": "function",
      "signature": "0xa0f5a7e7"
    },
    {
      "constant": true,
      "inputs": [
        {
          "name": "_fileHash",
          "type": "string"
        }
      ],
      "name": "getFileIndexByFileHash",
      "outputs": [
        {
          "name": "index",
          "type": "uint256"
        }
      ],
      "payable": false,
      "stateMutability": "view",
      "type": "function",
      "signature": "0x2ce18a74"
    }
  ],
  "bytecode": "0x608060405260008060006101000a81548160ff02191690831515021790555034801561002a57600080fd5b506001808190555033600560006101000a81548173ffffffffffffffffffffffffffffffffffffffff021916908373ffffffffffffffffffffffffffffffffffffffff16021790555061109f806100826000396000f3fe6080604052600436106100af576000357c0100000000000000000000000000000000000000000000000000000000900463ffffffff1680630930ffc8146100b457806312253a6c146100df57806327203b58146100f65780632bfda313146101d65780632ce18a74146102c45780634644f039146103a05780634f9822051461040f57806366d561d2146104fd5780638da5cb5b146105d0578063a0f5a7e714610627578063c4bc5da5146106cd575b600080fd5b3480156100c057600080fd5b506100c96106e4565b6040518082815260200191505060405180910390f35b3480156100eb57600080fd5b506100f46106ea565b005b34801561010257600080fd5b506101bc6004803603602081101561011957600080fd5b810190808035906020019064010000000081111561013657600080fd5b82018360208201111561014857600080fd5b8035906020019184600183028401116401000000008311171561016a57600080fd5b91908080601f016020809104026020016040519081016040528093929190818152602001838380828437600081840152601f19601f820116905080830192505050505050509192919290505050610762565b604051808215151515815260200191505060405180910390f35b3480156101e257600080fd5b5061020f600480360360208110156101f957600080fd5b81019080803590602001909291905050506107d9565b604051808473ffffffffffffffffffffffffffffffffffffffff1673ffffffffffffffffffffffffffffffffffffffff16815260200180602001838152602001828103825284818151815260200191508051906020019080838360005b8381101561028757808201518184015260208101905061026c565b50505050905090810190601f1680156102b45780820380516001836020036101000a031916815260200191505b5094505050505060405180910390f35b3480156102d057600080fd5b5061038a600480360360208110156102e757600080fd5b810190808035906020019064010000000081111561030457600080fd5b82018360208201111561031657600080fd5b8035906020019184600183028401116401000000008311171561033857600080fd5b91908080601f016020809104026020016040519081016040528093929190818152602001838380828437600081840152601f19601f820116905080830192505050505050509192919290505050610938565b6040518082815260200191505060405180910390f35b3480156103ac57600080fd5b506103f9600480360360408110156103c357600080fd5b81019080803573ffffffffffffffffffffffffffffffffffffffff169060200190929190803590602001909291905050506109ad565b6040518082815260200191505060405180910390f35b34801561041b57600080fd5b506104486004803603602081101561043257600080fd5b81019080803590602001909291905050506109dd565b604051808473ffffffffffffffffffffffffffffffffffffffff1673ffffffffffffffffffffffffffffffffffffffff16815260200180602001838152602001828103825284818151815260200191508051906020019080838360005b838110156104c05780820151818401526020810190506104a5565b50505050905090810190601f1680156104ed5780820380516001836020036101000a031916815260200191505b5094505050505060405180910390f35b6105b66004803603602081101561051357600080fd5b810190808035906020019064010000000081111561053057600080fd5b82018360208201111561054257600080fd5b8035906020019184600183028401116401000000008311171561056457600080fd5b91908080601f016020809104026020016040519081016040528093929190818152602001838380828437600081840152601f19601f820116905080830192505050505050509192919290505050610abf565b604051808215151515815260200191505060405180910390f35b3480156105dc57600080fd5b506105e5610e1e565b604051808273ffffffffffffffffffffffffffffffffffffffff1673ffffffffffffffffffffffffffffffffffffffff16815260200191505060405180910390f35b34801561063357600080fd5b506106766004803603602081101561064a57600080fd5b81019080803573ffffffffffffffffffffffffffffffffffffffff169060200190929190505050610e44565b6040518080602001828103825283818151815260200191508051906020019060200280838360005b838110156106b957808201518184015260208101905061069e565b505050509050019250505060405180910390f35b3480156106d957600080fd5b506106e2610edb565b005b60015481565b600560009054906101000a900473ffffffffffffffffffffffffffffffffffffffff1673ffffffffffffffffffffffffffffffffffffffff163373ffffffffffffffffffffffffffffffffffffffff1614151561074657600080fd5b60016000806101000a81548160ff021916908315150217905550565b6000806004836040518082805190602001908083835b60208310151561079d5780518252602082019150602081019050602083039250610778565b6001836020036101000a038019825116818451168082178552505050505050905001915050908152602001604051809103902054119050919050565b60006060600080841115156107ed57600080fd5b6107f5610f96565b60026000868152602001908152602001600020606060405190810160405290816000820160009054906101000a900473ffffffffffffffffffffffffffffffffffffffff1673ffffffffffffffffffffffffffffffffffffffff1673ffffffffffffffffffffffffffffffffffffffff168152602001600182018054600181600116156101000203166002900480601f0160208091040260200160405190810160405280929190818152602001828054600181600116156101000203166002900480156109035780601f106108d857610100808354040283529160200191610903565b820191906000526020600020905b8154815290600101906020018083116108e657829003601f168201915b505050505081526020016002820154815250509050806000015181602001518260400151819150935093509350509193909250565b60006004826040518082805190602001908083835b602083101515610972578051825260208201915060208101905060208303925061094d565b6001836020036101000a0380198251168184511680821785525050505050509050019150509081526020016040518091039020549050919050565b6003602052816000526040600020818154811015156109c857fe5b90600052602060002001600091509150505481565b60026020528060005260406000206000915090508060000160009054906101000a900473ffffffffffffffffffffffffffffffffffffffff1690806001018054600181600116156101000203166002900480601f016020809104026020016040519081016040528092919081815260200182805460018160011615610100020316600290048015610aaf5780601f10610a8457610100808354040283529160200191610aaf565b820191906000526020600020905b815481529060010190602001808311610a9257829003601f168201915b5050505050908060020154905083565b6000600560009054906101000a900473ffffffffffffffffffffffffffffffffffffffff1673ffffffffffffffffffffffffffffffffffffffff163373ffffffffffffffffffffffffffffffffffffffff16141515610b1d57600080fd5b6000809054906101000a900460ff16151515610b3857600080fd5b8160006004826040518082805190602001908083835b602083101515610b735780518252602082019150602081019050602083039250610b4e565b6001836020036101000a038019825116818451168082178552505050505050905001915050908152602001604051809103902054141515610bb357600080fd5b6060604051908101604052803373ffffffffffffffffffffffffffffffffffffffff1681526020018481526020014281525060026000600154815260200190815260200160002060008201518160000160006101000a81548173ffffffffffffffffffffffffffffffffffffffff021916908373ffffffffffffffffffffffffffffffffffffffff1602179055506020820151816001019080519060200190610c5d929190610fce565b5060408201518160020155905050600360003373ffffffffffffffffffffffffffffffffffffffff1673ffffffffffffffffffffffffffffffffffffffff16815260200190815260200160002060015490806001815401808255809150509060018203906000526020600020016000909192909190915055506001546004846040518082805190602001908083835b602083101515610d115780518252602082019150602081019050602083039250610cec565b6001836020036101000a038019825116818451168082178552505050505050905001915050908152602001604051809103902081905550610d5d60018054610f5390919063ffffffff16565b600181905550610d7860018054610f7490919063ffffffff16565b7f0a1c605f47b034daf4ae1c6505fecb349cff4400c422275b6dd2dfb7b74acd84846040518080602001828103825283818151815260200191508051906020019080838360005b83811015610dda578082015181840152602081019050610dbf565b50505050905090810190601f168015610e075780820380516001836020036101000a031916815260200191505b509250505060405180910390a26001915050919050565b600560009054906101000a900473ffffffffffffffffffffffffffffffffffffffff1681565b6060600360008373ffffffffffffffffffffffffffffffffffffffff1673ffffffffffffffffffffffffffffffffffffffff168152602001908152602001600020805480602002602001604051908101604052809291908181526020018280548015610ecf57602002820191906000526020600020905b815481526020019060010190808311610ebb575b50505050509050919050565b600560009054906101000a900473ffffffffffffffffffffffffffffffffffffffff1673ffffffffffffffffffffffffffffffffffffffff163373ffffffffffffffffffffffffffffffffffffffff16141515610f3757600080fd5b60008060006101000a81548160ff021916908315150217905550565b6000808284019050838110151515610f6a57600080fd5b8091505092915050565b6000828211151515610f8557600080fd5b600082840390508091505092915050565b606060405190810160405280600073ffffffffffffffffffffffffffffffffffffffff16815260200160608152602001600081525090565b828054600181600116156101000203166002900490600052602060002090601f016020900481019282601f1061100f57805160ff191683800117855561103d565b8280016001018555821561103d579182015b8281111561103c578251825591602001919060010190611021565b5b50905061104a919061104e565b5090565b61107091905b8082111561106c576000816000905550600101611054565b5090565b9056fea165627a7a72305820d596b48e27854fbbc80688744c9bf4c46ed99415a7b08284f780d7932510c05a0029",
  "source": "pragma solidity ^0.5.0;\n\nimport \"openzeppelin-solidity/contracts/math/SafeMath.sol\";\n\n\ncontract ProofOfExistence {\n\n  //Emergency Stop pattern\n  bool isStopped = false;\n\n  using SafeMath for uint;\n\n  // Structs\n  struct File {\n    address   creator;\n    string    fileHash ;\n    uint      timestamp;\n  }\n\n   // Other Constants\n  uint public currentFileIndex;\n\n  // mapping of file index to file\n  mapping (uint => File) public fileMap;\n\n  // mapping of user addresses to an array of files\n  mapping (address => uint[]) public userMap;\n\n  // mapping of file hash to its file index\n  mapping (string => uint) fileHashMap;\n\n  // Events\n  event FileRegistered(string fileHash, uint indexed fileIndex);\n\n  address public owner;\n\n  modifier onlyOwner() {\n        require(msg.sender == owner);\n        _;\n  }\n\n  // The same file cannot be registered twice\n  modifier uniqueFile(string memory _fileHash) {\n        require(fileHashMap[_fileHash] == 0);\n        _;\n  }\n\n  modifier stoppedInEmergency {\n      require(!isStopped);\n      _;\n  }\n\n  modifier onlyWhenStopped {\n      require(isStopped);\n      _;\n  }\n\n  constructor() public {\n    currentFileIndex = 1;\n    owner = msg.sender;\n  }\n\n\n  function stopContract() public onlyOwner {\n        isStopped = true;\n  }\n\n  function resumeContract() public onlyOwner {\n        isStopped = false;\n  }\n\n\n  /** @dev Registers a file hash to contract.\n    * @param _fileHash the file hash to register.\n    * @return boolean if successful transaction.\n    */\n  function registerFile(string memory _fileHash) public payable onlyOwner stoppedInEmergency uniqueFile(_fileHash)  returns (bool success) {\n    fileMap[currentFileIndex] = File(msg.sender, _fileHash, now);\n    userMap[msg.sender].push(currentFileIndex);\n    fileHashMap[_fileHash] = currentFileIndex;\n    currentFileIndex = currentFileIndex.add(1);\n\n    emit FileRegistered(_fileHash, currentFileIndex.sub(1));\n    return true;\n  }\n\n  /** @dev Returns all file info given file index in fileMap.\n    * @param _index - index of registered file in fileMap.\n    * @return creator The address of file creator.\n    * @return fileHash The file hash.\n    * @return timestamp The timestamp of file registry saved in blockchain.\n    */\n  function getFile(uint _index) public view returns (\n    address   creator,\n    string    memory fileHash,\n    uint      timestamp\n  ) {\n    require(_index > 0);\n    File memory f = fileMap[_index];\n    return (f.creator, f.fileHash, f.timestamp);\n  }\n\n  /** @dev check if a fileHash exists .\n    * @param _fileHash the file hash to register.\n    * @return boolean if file exists.\n    */\n  function checkFileExists(string memory _fileHash) public view returns (bool fileExists) {\n    fileExists = fileHashMap[_fileHash] > 0;\n  }\n\n  /** @dev Returns all Indexes given user.\n    * @param _user - indexes of registered file in userMap.\n    * @return uint[] Indexes.\n    */\n  function getUserMap(address _user) public view returns ( uint[] memory index) {\n     return userMap[_user];\n  }\n\n  /** @dev Shortcut function to read a file's index by its hash.\n    * @param _fileHash the file hash to register.\n    * @return uint index.\n    */\n  function getFileIndexByFileHash(string memory _fileHash) public view returns (uint index) {\n    return fileHashMap[_fileHash];\n  }\n\n}\n",
  "sourcePath": "/home/mdgadmin/FinalProjectFixed/Review/final-project-cvillegas31/contracts/ProofOfExistence.sol",
  "compiler": {
    "name": "solc",
    "version": "0.5.0+commit.1d4f565a.Emscripten.clang"
  },
  "schemaVersion": "3.0.1",
  "updatedAt": "2019-02-01T11:38:08.160Z",
  "devdoc": {
    "methods": {
      "checkFileExists(string)": {
        "details": "check if a fileHash exists .",
        "params": {
          "_fileHash": "the file hash to register."
        },
        "return": "boolean if file exists."
      },
      "getFile(uint256)": {
        "details": "Returns all file info given file index in fileMap.",
        "params": {
          "_index": "- index of registered file in fileMap."
        },
        "return": "creator The address of file creator.fileHash The file hash.timestamp The timestamp of file registry saved in blockchain."
      },
      "getFileIndexByFileHash(string)": {
        "details": "Shortcut function to read a file's index by its hash.",
        "params": {
          "_fileHash": "the file hash to register."
        },
        "return": "uint index."
      },
      "getUserMap(address)": {
        "details": "Returns all Indexes given user.",
        "params": {
          "_user": "- indexes of registered file in userMap."
        },
        "return": "uint[] Indexes."
      },
      "registerFile(string)": {
        "details": "Registers a file hash to contract.",
        "params": {
          "_fileHash": "the file hash to register."
        },
        "return": "boolean if successful transaction."
      }
    }
  },
  "userdoc": {
    "methods": {}
  }
}