{
  "contractName": "ProofOfExistence",
  "abi": [
    {
      "constant": true,
      "inputs": [],
      "name": "currentFileIndex",
      "outputs": [
        {
          "name": "",
          "type": "uint256"
        }
      ],
      "payable": false,
      "stateMutability": "view",
      "type": "function"
    },
    {
      "constant": true,
      "inputs": [
        {
          "name": "",
          "type": "address"
        },
        {
          "name": "",
          "type": "uint256"
        }
      ],
      "name": "userMap",
      "outputs": [
        {
          "name": "",
          "type": "uint256"
        }
      ],
      "payable": false,
      "stateMutability": "view",
      "type": "function"
    },
    {
      "constant": true,
      "inputs": [
        {
          "name": "",
          "type": "uint256"
        }
      ],
      "name": "fileMap",
      "outputs": [
        {
          "name": "creator",
          "type": "address"
        },
        {
          "name": "fileHash",
          "type": "string"
        },
        {
          "name": "timestamp",
          "type": "uint256"
        }
      ],
      "payable": false,
      "stateMutability": "view",
      "type": "function"
    },
    {
      "constant": true,
      "inputs": [],
      "name": "owner",
      "outputs": [
        {
          "name": "",
          "type": "address"
        }
      ],
      "payable": false,
      "stateMutability": "view",
      "type": "function"
    },
    {
      "inputs": [],
      "payable": false,
      "stateMutability": "nonpayable",
      "type": "constructor"
    },
    {
      "anonymous": false,
      "inputs": [
        {
          "indexed": false,
          "name": "fileHash",
          "type": "string"
        },
        {
          "indexed": true,
          "name": "fileIndex",
          "type": "uint256"
        }
      ],
      "name": "FileRegistered",
      "type": "event"
    },
    {
      "constant": false,
      "inputs": [
        {
          "name": "_fileHash",
          "type": "string"
        }
      ],
      "name": "registerFile",
      "outputs": [
        {
          "name": "success",
          "type": "bool"
        }
      ],
      "payable": true,
      "stateMutability": "payable",
      "type": "function"
    },
    {
      "constant": true,
      "inputs": [
        {
          "name": "_index",
          "type": "uint256"
        }
      ],
      "name": "getFile",
      "outputs": [
        {
          "name": "creator",
          "type": "address"
        },
        {
          "name": "fileHash",
          "type": "string"
        },
        {
          "name": "timestamp",
          "type": "uint256"
        }
      ],
      "payable": false,
      "stateMutability": "view",
      "type": "function"
    },
    {
      "constant": true,
      "inputs": [
        {
          "name": "_fileHash",
          "type": "string"
        }
      ],
      "name": "checkFileExists",
      "outputs": [
        {
          "name": "fileExists",
          "type": "bool"
        }
      ],
      "payable": false,
      "stateMutability": "view",
      "type": "function"
    },
    {
      "constant": true,
      "inputs": [
        {
          "name": "_user",
          "type": "address"
        }
      ],
      "name": "getUserMap",
      "outputs": [
        {
          "name": "index",
          "type": "uint256[]"
        }
      ],
      "payable": false,
      "stateMutability": "view",
      "type": "function"
    }
  ],
  "bytecode": "0x608060405234801561001057600080fd5b50600160008190555033600460006101000a81548173ffffffffffffffffffffffffffffffffffffffff021916908373ffffffffffffffffffffffffffffffffffffffff160217905550610c95806100696000396000f30060806040526004361061008e576000357c0100000000000000000000000000000000000000000000000000000000900463ffffffff1680630930ffc81461009357806327203b58146100be5780632bfda3131461013f5780634644f0391461021f5780634f9822051461028057806366d561d2146103605780638da5cb5b146103d4578063a0f5a7e71461042b575b600080fd5b34801561009f57600080fd5b506100a86104c3565b6040518082815260200191505060405180910390f35b3480156100ca57600080fd5b50610125600480360381019080803590602001908201803590602001908080601f01602080910402602001604051908101604052809392919081815260200183838082843782019150505050505091929192905050506104c9565b604051808215151515815260200191505060405180910390f35b34801561014b57600080fd5b5061016a60048036038101908080359060200190929190505050610540565b604051808473ffffffffffffffffffffffffffffffffffffffff1673ffffffffffffffffffffffffffffffffffffffff16815260200180602001838152602001828103825284818151815260200191508051906020019080838360005b838110156101e25780820151818401526020810190506101c7565b50505050905090810190601f16801561020f5780820380516001836020036101000a031916815260200191505b5094505050505060405180910390f35b34801561022b57600080fd5b5061026a600480360381019080803573ffffffffffffffffffffffffffffffffffffffff169060200190929190803590602001909291905050506106a0565b6040518082815260200191505060405180910390f35b34801561028c57600080fd5b506102ab600480360381019080803590602001909291905050506106d0565b604051808473ffffffffffffffffffffffffffffffffffffffff1673ffffffffffffffffffffffffffffffffffffffff16815260200180602001838152602001828103825284818151815260200191508051906020019080838360005b83811015610323578082015181840152602081019050610308565b50505050905090810190601f1680156103505780820380516001836020036101000a031916815260200191505b5094505050505060405180910390f35b6103ba600480360381019080803590602001908201803590602001908080601f01602080910402602001604051908101604052809392919081815260200183838082843782019150505050505091929192905050506107b2565b604051808215151515815260200191505060405180910390f35b3480156103e057600080fd5b506103e9610a98565b604051808273ffffffffffffffffffffffffffffffffffffffff1673ffffffffffffffffffffffffffffffffffffffff16815260200191505060405180910390f35b34801561043757600080fd5b5061046c600480360381019080803573ffffffffffffffffffffffffffffffffffffffff169060200190929190505050610abe565b6040518080602001828103825283818151815260200191508051906020019060200280838360005b838110156104af578082015181840152602081019050610494565b505050509050019250505060405180910390f35b60005481565b6000806003836040518082805190602001908083835b60208310151561050457805182526020820191506020810190506020830392506104df565b6001836020036101000a038019825116818451168082178552505050505050905001915050908152602001604051809103902054119050919050565b60006060600061054e610b8c565b60008511151561055d57600080fd5b60016000868152602001908152602001600020606060405190810160405290816000820160009054906101000a900473ffffffffffffffffffffffffffffffffffffffff1673ffffffffffffffffffffffffffffffffffffffff1673ffffffffffffffffffffffffffffffffffffffff168152602001600182018054600181600116156101000203166002900480601f01602080910402602001604051908101604052809291908181526020018280546001816001161561010002031660029004801561066b5780601f106106405761010080835404028352916020019161066b565b820191906000526020600020905b81548152906001019060200180831161064e57829003601f168201915b505050505081526020016002820154815250509050806000015181602001518260400151819150935093509350509193909250565b6002602052816000526040600020818154811015156106bb57fe5b90600052602060002001600091509150505481565b60016020528060005260406000206000915090508060000160009054906101000a900473ffffffffffffffffffffffffffffffffffffffff1690806001018054600181600116156101000203166002900480601f0160208091040260200160405190810160405280929190818152602001828054600181600116156101000203166002900480156107a25780601f10610777576101008083540402835291602001916107a2565b820191906000526020600020905b81548152906001019060200180831161078557829003601f168201915b5050505050908060020154905083565b6000806003836040518082805190602001908083835b6020831015156107ed57805182526020820191506020810190506020830392506107c8565b6001836020036101000a03801982511681845116808217855250505050505090500191505090815260200160405180910390205414151561082d57600080fd5b6060604051908101604052803373ffffffffffffffffffffffffffffffffffffffff16815260200183815260200142815250600160008054815260200190815260200160002060008201518160000160006101000a81548173ffffffffffffffffffffffffffffffffffffffff021916908373ffffffffffffffffffffffffffffffffffffffff16021790555060208201518160010190805190602001906108d6929190610bc4565b5060408201518160020155905050600260003373ffffffffffffffffffffffffffffffffffffffff1673ffffffffffffffffffffffffffffffffffffffff16815260200190815260200160002060005490806001815401808255809150509060018203906000526020600020016000909192909190915055506000546003836040518082805190602001908083835b60208310151561098a5780518252602082019150602081019050602083039250610965565b6001836020036101000a0380198251168184511680821785525050505050509050019150509081526020016040518091039020819055506109d76001600054610b5590919063ffffffff16565b6000819055506109f36001600054610b7390919063ffffffff16565b7f0a1c605f47b034daf4ae1c6505fecb349cff4400c422275b6dd2dfb7b74acd84836040518080602001828103825283818151815260200191508051906020019080838360005b83811015610a55578082015181840152602081019050610a3a565b50505050905090810190601f168015610a825780820380516001836020036101000a031916815260200191505b509250505060405180910390a260019050919050565b600460009054906101000a900473ffffffffffffffffffffffffffffffffffffffff1681565b6060600260008373ffffffffffffffffffffffffffffffffffffffff1673ffffffffffffffffffffffffffffffffffffffff168152602001908152602001600020805480602002602001604051908101604052809291908181526020018280548015610b4957602002820191906000526020600020905b815481526020019060010190808311610b35575b50505050509050919050565b6000808284019050838110151515610b6957fe5b8091505092915050565b6000828211151515610b8157fe5b818303905092915050565b606060405190810160405280600073ffffffffffffffffffffffffffffffffffffffff16815260200160608152602001600081525090565b828054600181600116156101000203166002900490600052602060002090601f016020900481019282601f10610c0557805160ff1916838001178555610c33565b82800160010185558215610c33579182015b82811115610c32578251825591602001919060010190610c17565b5b509050610c409190610c44565b5090565b610c6691905b80821115610c62576000816000905550600101610c4a565b5090565b905600a165627a7a723058204b61bac647f953101f50634f6ccd7a67a97c5ed6814a39f3cca3262cab3f0b8c0029",
  "source": "pragma solidity ^0.4.23;\n\nimport \"../installed_contracts/zeppelin/contracts/math/SafeMath.sol\";\n\n\ncontract ProofOfExistence {\n\n  using SafeMath for uint;\n\n  // Structs\n  struct File {\n    address   creator;\n    string    fileHash;\n    uint      timestamp;\n  }\n\n   // Other Constants\n  uint public currentFileIndex;\n\n  // mapping of file index to file\n  // FILE INDEX || FILE\n  mapping (uint => File) public fileMap;\n\n  // mapping of user addresses to an array of files\n  // ADDRESS USER || Array of file indices\n  mapping (address => uint[]) public userMap;\n\n  // mapping of file hash to its file index\n  // not public because public accessor of dynamically sized mapping is not yet built\n  // STRING FILEHASH || UINT FILE INDEX\n  mapping (string => uint) fileHashMap;\n\n  // Events\n  event FileRegistered(string fileHash, uint indexed fileIndex);\n\n  address public owner;\n\n  modifier onlyOwner() {\n        require(msg.sender == owner);\n        _;\n  }\n\n  constructor() public {\n    currentFileIndex = 1;\n    owner = msg.sender;\n  }\n\n  /** @dev Registers an IPFS file hash to contract.\n    * @param _fileHash the IPFS file hash to register.\n    * @return boolean if successful transaction.\n    */\n  function registerFile(string _fileHash) public payable returns (bool success) {\n    // The same file cannot be registered twice\n    require(fileHashMap[_fileHash] == 0);\n\n    fileMap[currentFileIndex] = File(msg.sender, _fileHash, now);\n    userMap[msg.sender].push(currentFileIndex);\n    fileHashMap[_fileHash] = currentFileIndex;\n    currentFileIndex = currentFileIndex.add(1);\n\n    emit FileRegistered(_fileHash, currentFileIndex.sub(1));\n    return true;\n  }\n\n  /** @dev Returns all file info given file index in fileMap.\n    * @param _index - index of registered file in fileMap.\n    * @return creator The address of file creator.\n    * @return fileHash The file IPFS hash.\n    * @return timestamp The timestamp of file registry saved in blockchain.\n    */\n  function getFile(uint _index) public view returns (\n    address   creator,\n    string    fileHash,\n    uint      timestamp\n  ) {\n    require(_index > 0);\n    File memory f = fileMap[_index];\n    return (f.creator, f.fileHash, f.timestamp);\n  }\n  /** @dev Shortcut function to check if a fileHash exists in registry.\n    * @param _fileHash the IPFS file hash to register.\n    * @return boolean if file exists.\n    */\n  function checkFileExists(string _fileHash) public view returns (bool fileExists) {\n    fileExists = fileHashMap[_fileHash] > 0;\n  }\n\n  function getUserMap(address _user) public view returns ( uint[] index) {\n     return userMap[_user];\n  }\n\n}\n",
  "sourcePath": "/home/mdgadmin/Ganache/proof-of-ex/contracts/ProofOfExistence.sol",
  "compiler": {
    "name": "solc",
    "version": "0.4.24+commit.e67f0147.Emscripten.clang"
  },
  "schemaVersion": "2.0.1",
  "updatedAt": "2019-01-26T19:58:49.119Z"
}